{
  "_format": "hh-sol-artifact-1",
  "contractName": "WhitelistSale",
  "sourceName": "contracts/WhitelistSale.sol",
  "abi": [
    {
      "inputs": [
        {
          "internalType": "address",
          "name": "_token",
          "type": "address"
        },
        {
          "internalType": "address",
          "name": "_treasury",
          "type": "address"
        },
        {
          "internalType": "uint256",
          "name": "_tokenPrice",
          "type": "uint256"
        },
        {
          "internalType": "uint256",
          "name": "_minPurchase",
          "type": "uint256"
        },
        {
          "internalType": "uint256",
          "name": "_maxPurchase",
          "type": "uint256"
        },
        {
          "internalType": "uint256",
          "name": "_maxSupply",
          "type": "uint256"
        },
        {
          "internalType": "uint256",
          "name": "_startTime",
          "type": "uint256"
        },
        {
          "internalType": "uint256",
          "name": "_endTime",
          "type": "uint256"
        },
        {
          "internalType": "address",
          "name": "_initialOwner",
          "type": "address"
        }
      ],
      "stateMutability": "nonpayable",
      "type": "constructor"
    },
    {
      "inputs": [],
      "name": "EnforcedPause",
      "type": "error"
    },
    {
      "inputs": [],
      "name": "ExpectedPause",
      "type": "error"
    },
    {
      "inputs": [
        {
          "internalType": "address",
          "name": "owner",
          "type": "address"
        }
      ],
      "name": "OwnableInvalidOwner",
      "type": "error"
    },
    {
      "inputs": [
        {
          "internalType": "address",
          "name": "account",
          "type": "address"
        }
      ],
      "name": "OwnableUnauthorizedAccount",
      "type": "error"
    },
    {
      "inputs": [],
      "name": "ReentrancyGuardReentrantCall",
      "type": "error"
    },
    {
      "inputs": [
        {
          "internalType": "address",
          "name": "token",
          "type": "address"
        }
      ],
      "name": "SafeERC20FailedOperation",
      "type": "error"
    },
    {
      "anonymous": false,
      "inputs": [
        {
          "indexed": true,
          "internalType": "address",
          "name": "token",
          "type": "address"
        },
        {
          "indexed": false,
          "internalType": "uint256",
          "name": "amount",
          "type": "uint256"
        }
      ],
      "name": "EmergencyWithdraw",
      "type": "event"
    },
    {
      "anonymous": false,
      "inputs": [
        {
          "indexed": false,
          "internalType": "bytes32",
          "name": "newRoot",
          "type": "bytes32"
        }
      ],
      "name": "MerkleRootUpdated",
      "type": "event"
    },
    {
      "anonymous": false,
      "inputs": [
        {
          "indexed": true,
          "internalType": "address",
          "name": "previousOwner",
          "type": "address"
        },
        {
          "indexed": true,
          "internalType": "address",
          "name": "newOwner",
          "type": "address"
        }
      ],
      "name": "OwnershipTransferred",
      "type": "event"
    },
    {
      "anonymous": false,
      "inputs": [
        {
          "indexed": false,
          "internalType": "address",
          "name": "account",
          "type": "address"
        }
      ],
      "name": "Paused",
      "type": "event"
    },
    {
      "anonymous": false,
      "inputs": [],
      "name": "SaleConfigUpdated",
      "type": "event"
    },
    {
      "anonymous": false,
      "inputs": [
        {
          "indexed": true,
          "internalType": "address",
          "name": "buyer",
          "type": "address"
        },
        {
          "indexed": false,
          "internalType": "uint256",
          "name": "tokenAmount",
          "type": "uint256"
        },
        {
          "indexed": false,
          "internalType": "uint256",
          "name": "ethAmount",
          "type": "uint256"
        },
        {
          "indexed": false,
          "internalType": "uint256",
          "name": "timestamp",
          "type": "uint256"
        }
      ],
      "name": "TokenPurchase",
      "type": "event"
    },
    {
      "anonymous": false,
      "inputs": [
        {
          "indexed": true,
          "internalType": "address",
          "name": "buyer",
          "type": "address"
        },
        {
          "indexed": false,
          "internalType": "uint256",
          "name": "amount",
          "type": "uint256"
        }
      ],
      "name": "TokensClaimed",
      "type": "event"
    },
    {
      "anonymous": false,
      "inputs": [
        {
          "indexed": false,
          "internalType": "address",
          "name": "account",
          "type": "address"
        }
      ],
      "name": "Unpaused",
      "type": "event"
    },
    {
      "anonymous": false,
      "inputs": [
        {
          "indexed": true,
          "internalType": "address",
          "name": "account",
          "type": "address"
        },
        {
          "indexed": false,
          "internalType": "bool",
          "name": "whitelisted",
          "type": "bool"
        }
      ],
      "name": "WhitelistUpdated",
      "type": "event"
    },
    {
      "inputs": [],
      "name": "claimEnabled",
      "outputs": [
        {
          "internalType": "bool",
          "name": "",
          "type": "bool"
        }
      ],
      "stateMutability": "view",
      "type": "function"
    },
    {
      "inputs": [],
      "name": "claimStartTime",
      "outputs": [
        {
          "internalType": "uint256",
          "name": "",
          "type": "uint256"
        }
      ],
      "stateMutability": "view",
      "type": "function"
    },
    {
      "inputs": [],
      "name": "claimTokens",
      "outputs": [],
      "stateMutability": "nonpayable",
      "type": "function"
    },
    {
      "inputs": [
        {
          "internalType": "address",
          "name": "tokenAddress",
          "type": "address"
        },
        {
          "internalType": "uint256",
          "name": "amount",
          "type": "uint256"
        }
      ],
      "name": "emergencyWithdraw",
      "outputs": [],
      "stateMutability": "nonpayable",
      "type": "function"
    },
    {
      "inputs": [],
      "name": "emergencyWithdrawETH",
      "outputs": [],
      "stateMutability": "nonpayable",
      "type": "function"
    },
    {
      "inputs": [
        {
          "internalType": "address",
          "name": "buyer",
          "type": "address"
        }
      ],
      "name": "getPurchaseInfo",
      "outputs": [
        {
          "internalType": "uint256",
          "name": "amount",
          "type": "uint256"
        },
        {
          "internalType": "uint256",
          "name": "ethSpent",
          "type": "uint256"
        },
        {
          "internalType": "uint256",
          "name": "timestamp",
          "type": "uint256"
        },
        {
          "internalType": "bool",
          "name": "claimed",
          "type": "bool"
        }
      ],
      "stateMutability": "view",
      "type": "function"
    },
    {
      "inputs": [],
      "name": "isSaleActive",
      "outputs": [
        {
          "internalType": "bool",
          "name": "",
          "type": "bool"
        }
      ],
      "stateMutability": "view",
      "type": "function"
    },
    {
      "inputs": [
        {
          "internalType": "address",
          "name": "account",
          "type": "address"
        },
        {
          "internalType": "bytes32[]",
          "name": "merkleProof",
          "type": "bytes32[]"
        }
      ],
      "name": "isWhitelisted",
      "outputs": [
        {
          "internalType": "bool",
          "name": "",
          "type": "bool"
        }
      ],
      "stateMutability": "view",
      "type": "function"
    },
    {
      "inputs": [],
      "name": "merkleRoot",
      "outputs": [
        {
          "internalType": "bytes32",
          "name": "",
          "type": "bytes32"
        }
      ],
      "stateMutability": "view",
      "type": "function"
    },
    {
      "inputs": [],
      "name": "owner",
      "outputs": [
        {
          "internalType": "address",
          "name": "",
          "type": "address"
        }
      ],
      "stateMutability": "view",
      "type": "function"
    },
    {
      "inputs": [],
      "name": "pause",
      "outputs": [],
      "stateMutability": "nonpayable",
      "type": "function"
    },
    {
      "inputs": [],
      "name": "paused",
      "outputs": [
        {
          "internalType": "bool",
          "name": "",
          "type": "bool"
        }
      ],
      "stateMutability": "view",
      "type": "function"
    },
    {
      "inputs": [
        {
          "internalType": "uint256",
          "name": "tokenAmount",
          "type": "uint256"
        },
        {
          "internalType": "bytes32[]",
          "name": "merkleProof",
          "type": "bytes32[]"
        }
      ],
      "name": "purchaseTokens",
      "outputs": [],
      "stateMutability": "payable",
      "type": "function"
    },
    {
      "inputs": [
        {
          "internalType": "address",
          "name": "",
          "type": "address"
        }
      ],
      "name": "purchases",
      "outputs": [
        {
          "internalType": "uint256",
          "name": "amount",
          "type": "uint256"
        },
        {
          "internalType": "uint256",
          "name": "ethSpent",
          "type": "uint256"
        },
        {
          "internalType": "uint256",
          "name": "timestamp",
          "type": "uint256"
        },
        {
          "internalType": "bool",
          "name": "claimed",
          "type": "bool"
        }
      ],
      "stateMutability": "view",
      "type": "function"
    },
    {
      "inputs": [],
      "name": "remainingTokens",
      "outputs": [
        {
          "internalType": "uint256",
          "name": "",
          "type": "uint256"
        }
      ],
      "stateMutability": "view",
      "type": "function"
    },
    {
      "inputs": [],
      "name": "renounceOwnership",
      "outputs": [],
      "stateMutability": "nonpayable",
      "type": "function"
    },
    {
      "inputs": [],
      "name": "saleConfig",
      "outputs": [
        {
          "internalType": "uint256",
          "name": "tokenPrice",
          "type": "uint256"
        },
        {
          "internalType": "uint256",
          "name": "minPurchase",
          "type": "uint256"
        },
        {
          "internalType": "uint256",
          "name": "maxPurchase",
          "type": "uint256"
        },
        {
          "internalType": "uint256",
          "name": "maxSupply",
          "type": "uint256"
        },
        {
          "internalType": "uint256",
          "name": "startTime",
          "type": "uint256"
        },
        {
          "internalType": "uint256",
          "name": "endTime",
          "type": "uint256"
        },
        {
          "internalType": "bool",
          "name": "whitelistRequired",
          "type": "bool"
        }
      ],
      "stateMutability": "view",
      "type": "function"
    },
    {
      "inputs": [
        {
          "internalType": "bool",
          "name": "_enabled",
          "type": "bool"
        },
        {
          "internalType": "uint256",
          "name": "_claimStartTime",
          "type": "uint256"
        }
      ],
      "name": "setClaimEnabled",
      "outputs": [],
      "stateMutability": "nonpayable",
      "type": "function"
    },
    {
      "inputs": [
        {
          "internalType": "bytes32",
          "name": "_merkleRoot",
          "type": "bytes32"
        }
      ],
      "name": "setMerkleRoot",
      "outputs": [],
      "stateMutability": "nonpayable",
      "type": "function"
    },
    {
      "inputs": [],
      "name": "token",
      "outputs": [
        {
          "internalType": "contract IERC20",
          "name": "",
          "type": "address"
        }
      ],
      "stateMutability": "view",
      "type": "function"
    },
    {
      "inputs": [],
      "name": "totalEthRaised",
      "outputs": [
        {
          "internalType": "uint256",
          "name": "",
          "type": "uint256"
        }
      ],
      "stateMutability": "view",
      "type": "function"
    },
    {
      "inputs": [
        {
          "internalType": "address",
          "name": "",
          "type": "address"
        }
      ],
      "name": "totalPurchased",
      "outputs": [
        {
          "internalType": "uint256",
          "name": "",
          "type": "uint256"
        }
      ],
      "stateMutability": "view",
      "type": "function"
    },
    {
      "inputs": [],
      "name": "totalSold",
      "outputs": [
        {
          "internalType": "uint256",
          "name": "",
          "type": "uint256"
        }
      ],
      "stateMutability": "view",
      "type": "function"
    },
    {
      "inputs": [
        {
          "internalType": "address",
          "name": "newOwner",
          "type": "address"
        }
      ],
      "name": "transferOwnership",
      "outputs": [],
      "stateMutability": "nonpayable",
      "type": "function"
    },
    {
      "inputs": [],
      "name": "treasury",
      "outputs": [
        {
          "internalType": "address",
          "name": "",
          "type": "address"
        }
      ],
      "stateMutability": "view",
      "type": "function"
    },
    {
      "inputs": [],
      "name": "unpause",
      "outputs": [],
      "stateMutability": "nonpayable",
      "type": "function"
    },
    {
      "inputs": [
        {
          "internalType": "uint256",
          "name": "_tokenPrice",
          "type": "uint256"
        },
        {
          "internalType": "uint256",
          "name": "_minPurchase",
          "type": "uint256"
        },
        {
          "internalType": "uint256",
          "name": "_maxPurchase",
          "type": "uint256"
        },
        {
          "internalType": "uint256",
          "name": "_maxSupply",
          "type": "uint256"
        },
        {
          "internalType": "uint256",
          "name": "_startTime",
          "type": "uint256"
        },
        {
          "internalType": "uint256",
          "name": "_endTime",
          "type": "uint256"
        },
        {
          "internalType": "bool",
          "name": "_whitelistRequired",
          "type": "bool"
        }
      ],
      "name": "updateSaleConfig",
      "outputs": [],
      "stateMutability": "nonpayable",
      "type": "function"
    },
    {
      "inputs": [
        {
          "internalType": "address",
          "name": "account",
          "type": "address"
        },
        {
          "internalType": "bool",
          "name": "whitelisted",
          "type": "bool"
        }
      ],
      "name": "updateWhitelist",
      "outputs": [],
      "stateMutability": "nonpayable",
      "type": "function"
    },
    {
      "inputs": [
        {
          "internalType": "address[]",
          "name": "accounts",
          "type": "address[]"
        },
        {
          "internalType": "bool",
          "name": "whitelisted",
          "type": "bool"
        }
      ],
      "name": "updateWhitelistBatch",
      "outputs": [],
      "stateMutability": "nonpayable",
      "type": "function"
    },
    {
      "inputs": [
        {
          "internalType": "address",
          "name": "",
          "type": "address"
        }
      ],
      "name": "whitelist",
      "outputs": [
        {
          "internalType": "bool",
          "name": "",
          "type": "bool"
        }
      ],
      "stateMutability": "view",
      "type": "function"
    }
  ],
  "bytecode": "0x60c0346200055b576001600160401b0390601f62001edc38819003918201601f1916830191848311848410176200023757808492610120946040528339810103126200055b57620000508162000560565b916200005f6020830162000560565b906040830151606084015160808501519160a08601519360c0870151956200009061010060e08a0151990162000560565b6001600055986001600160a01b038a1615620005425760018054610100600160a81b0319811660088d811b610100600160a81b0316919091179092556040519b6001600160a01b03908116929190911c167f8be0079c531659141344cd1fd0a4f28419497f9722a3daafe3b4186f6b6457e0600080a36001600160a01b0316988915620004ec57506001600160a01b0381169889156200049057831562000431578415620003d157848610620003665786156200030857428810620002ab57878911156200024d5760805260a0526040519060e0820190811182821017620002375760019160c0916040528381528460208201528560408201528660608201528760808201528860a0820152015260025560035560045560055560065560075560ff19600181600854161760085581600052600960205260016040600020918254161790557ff93f9a76c1bf3444d22400a00cb9fe990e6abe9dbb333fda48859cfee864543d602060405160018152a26040516119669081620005768239608051818181610180015281816103cd015261126a015260a05181818161068e0152610f620152f35b634e487b7160e01b600052604160045260246000fd5b60405162461bcd60e51b815260206004820152603060248201527f57686974656c69737453616c653a20656e642074696d65206d7573742062652060448201526f61667465722073746172742074696d6560801b6064820152608490fd5b60405162461bcd60e51b815260206004820152602f60248201527f57686974656c69737453616c653a2073746172742074696d65206d757374206260448201526e6520696e207468652066757475726560881b6064820152608490fd5b60405162461bcd60e51b815260206004820152603060248201527f57686974656c69737453616c653a206d617820737570706c79206d757374206260448201526f0652067726561746572207468616e20360841b6064820152608490fd5b60405162461bcd60e51b815260206004820152603360248201527f57686974656c69737453616c653a206d6178207075726368617365206d75737460448201527f206265203e3d206d696e207075726368617365000000000000000000000000006064820152608490fd5b60405162461bcd60e51b815260206004820152603260248201527f57686974656c69737453616c653a206d696e207075726368617365206d75737460448201527102062652067726561746572207468616e20360741b6064820152608490fd5b60405162461bcd60e51b815260206004820152603160248201527f57686974656c69737453616c653a20746f6b656e207072696365206d75737420604482015270062652067726561746572207468616e203607c1b6064820152608490fd5b60405162461bcd60e51b815260206004820152602e60248201527f57686974656c69737453616c653a2074726561737572792063616e6e6f74206260448201526d65207a65726f206164647265737360901b6064820152608490fd5b62461bcd60e51b815260206004820152602b60248201527f57686974656c69737453616c653a20746f6b656e2063616e6e6f74206265207a60448201526a65726f206164647265737360a81b6064820152608490fd5b604051631e4fbdf760e01b815260006004820152602490fd5b600080fd5b51906001600160a01b03821682036200055b5756fe6040608081526004908136101561001557600080fd5b600091823560e01c9081630d392cd9146114a85781632866ed21146114845781632eb4a7ab146114655781633f4ba83a146113fb57816348c54b9d14611206578163497aef28146111ce578163564566a8146111b15781635a23dd99146111605781635c0ef3fa14610fb55781635c975abb14610f9157816361d027b314610f4d57816369d77a1914610ef8578163715018a614610e94578163722cf8d214610bed5781637cb6475914610b9f578163842a77d314610b385781638453601714610a925781638456cb5914610a385781638da5cb5b14610a0b57816390aa0b0f146109b55781639106d7ba14610996578163938d2fde146104f757816395ccea67146103905781639b19251a14610352578163a6a11bb114610333578163bf58390314610308578163c9e904be146102e9578163eb5d1c3914610254578163f2fde38b146101b3575063fc0c546a1461016d57600080fd5b346101af57816003193601126101af57517f00000000000000000000000000000000000000000000000000000000000000006001600160a01b03168152602090f35b5080fd5b905034610250576020366003190112610250576101ce611534565b6101d661158f565b6001600160a01b0381811693909290841561023a57505060018054610100600160a81b03198116600893841b610100600160a81b031617909155901c167f8be0079c531659141344cd1fd0a4f28419497f9722a3daafe3b4186f6b6457e08380a380f35b51631e4fbdf760e01b8152908101859052602490fd5b8280fd5b5050346101af5760203660031901126101af579081906001600160a01b0361027a611534565b168152600b60205220906102e56060825193610295856115e1565b80549384865260018201549586602082015260ff60036002850154948585850152015416151593849101525194859485926060929594919560808501968552602085015260408401521515910152565b0390f35b5050346101af57816003193601126101af57602090600e549051908152f35b5050346101af57816003193601126101af5760209061032c600554600d5490611613565b9051908152f35b5050346101af57816003193601126101af576020906010549051908152f35b5050346101af5760203660031901126101af5760209160ff9082906001600160a01b0361037d611534565b1681526009855220541690519015158152f35b919050346102505780600319360112610250576103ab611534565b90602435916103b861158f565b6001600160a01b039081169384156104a057817f0000000000000000000000000000000000000000000000000000000000000000168514610434575b509160209161042c827f5fafa99d0643513820be26656b45130b01e1c03062e1266bf36f88cbd3bd96959560015460081c1687611661565b51908152a280f35b610443600554600d5490611613565b8411156103f457608490602084519162461bcd60e51b8352820152602a60248201527f57686974656c69737453616c653a2063616e6e6f7420776974686472617720736044820152696f6c6420746f6b656e7360b01b6064820152fd5b608490602084519162461bcd60e51b8352820152602b60248201527f57686974656c69737453616c653a20746f6b656e20616464726573732063616e60448201526a6e6f74206265207a65726f60a81b6064820152fd5b9180915060031936011261025057813591602490813567ffffffffffffffff811161099257610529903690830161155e565b919061053361163e565b61053b611620565b610543611794565b156109465760035486106108f6578154928387116108a45761056787600d546115be565b600554106108585760ff600854166107f1575b5050338652602091600c835261059386868920546115be565b116107985760025480860290868204148615171561078657670de0b6b3a764000090049283341061073b575050338552600b81526106426105d785858820546115be565b338752600b835260036105f0856001888b2001546115be565b8651926105fc846115e1565b835284830190815286830142815260608401918a8352338b52600b8752888b209451855551600185015551600284015551151591019060ff801983541691151516179055565b600c81528285206106548582546115be565b905561066284600d546115be565b600d5561067182600e546115be565b600e5581341161070b575b8480838015610701575b8291829182917f00000000000000000000000000000000000000000000000000000000000000006001600160a01b031690f1156106f757825193845283015242908201527f347f5f0051b895093800553e6e78ef332849e2552639a4f5ffe66535788ae07860603392a26001815580f35b82513d86823e3d90fd5b6108fc9150610686565b848080806107198634611613565b818115610732575b3390f161067c5782513d86823e3d90fd5b506108fc610721565b60849285519262461bcd60e51b8452830152808201527f57686974656c69737453616c653a20696e73756666696369656e7420455448206044820152631cd95b9d60e21b6064820152fd5b634e487b7160e01b8752601182528387fd5b925162461bcd60e51b8152928301526030908201527f57686974656c69737453616c653a206578636565647320696e6469766964756160448201526f1b081c1d5c98da185cd9481b1a5b5a5d60821b6064820152608490fd5b6107fb91336117bf565b1561080757388061057a565b608490602684602087519362461bcd60e51b85528401528201527f57686974656c69737453616c653a2061646472657373206e6f742077686974656044820152651b1a5cdd195960d21b6064820152fd5b855162461bcd60e51b81526020818501526021818701527f57686974656c69737453616c653a2065786365656473206d617820737570706c6044820152607960f81b6064820152608490fd5b855162461bcd60e51b81526020818501526027818701527f57686974656c69737453616c653a2065786365656473206d6178696d756d20706044820152667572636861736560c81b6064820152608490fd5b845162461bcd60e51b81526020818401526025818601527f57686974656c69737453616c653a2062656c6f77206d696e696d756d20707572604482015264636861736560d81b6064820152608490fd5b845162461bcd60e51b81526020818401526021818601527f57686974656c69737453616c653a2073616c65206973206e6f742061637469766044820152606560f81b6064820152608490fd5b8580fd5b5050346101af57816003193601126101af57602090600d549051908152f35b90503461025057826003193601126102505760e09250600254916003549154600554600654916007549360ff6008541695815197885260208801528601526060850152608084015260a0830152151560c0820152f35b5050346101af57816003193601126101af57600154905160089190911c6001600160a01b03168152602090f35b5050346101af57816003193601126101af5760207f62e78cea01bee320cd4e420270b5ea74000d11b0c9f74754ebdbfc544b05a25891610a7661158f565b610a7e611620565b600160ff198154161760015551338152a180f35b905034610250578260031936011261025057610aac61158f565b4715610aec57508180808060018060a01b0360015460081c164790828215610ae3575bf115610ad9575080f35b51903d90823e3d90fd5b506108fc610acf565b6020608492519162461bcd60e51b8352820152602160248201527f57686974656c69737453616c653a206e6f2045544820746f20776974686472616044820152607760f81b6064820152fd5b5050346101af5760203660031901126101af579081906001600160a01b03610b5e611534565b168152600b6020908152919020805460018201546002830154600390930154945191825292810192909252604082015260ff90911615156060820152608090f35b905034610250576020366003190112610250577f90004c04698bc3322499a575ed3752dd4abf33e0a7294c06a787a0fe01bea941916020913590610be161158f565b81600a5551908152a180f35b919050346102505760e0366003190112610250578135906024803560449485359160649586359460849687359760a4359960c4359b8c1515809d03610e9057610c3461158f565b8515610e38578615610ddf57868910610d8557600d548a10610d21578a8c1115610cca575050505167ffffffffffffffff60e08201918210911117610cb957506002556003555560055560065560075560ff8019600854169116176008557f8aeb0be5833bbe27d33dca0667b137c3cf314b524b7545b022697b7debe27e128180a180f35b634e487b7160e01b8a526041845289fd5b7f57686974656c69737453616c653a20656e642074696d65206d757374206265209060306f61667465722073746172742074696d6560801b949660208b97519762461bcd60e51b8952880152860152840152820152fd5b7f57686974656c69737453616c653a206d617820737570706c792063616e6e6f749060387f206265206c657373207468616e20746f74616c20736f6c640000000000000000949660208b97519762461bcd60e51b8952880152860152840152820152fd5b7f57686974656c69737453616c653a206d6178207075726368617365206d75737490603372206265203e3d206d696e20707572636861736560681b949660208b97519762461bcd60e51b8952880152860152840152820152fd5b7f57686974656c69737453616c653a206d696e207075726368617365206d7573749060327102062652067726561746572207468616e20360741b949660208b97519762461bcd60e51b8952880152860152840152820152fd5b7f57686974656c69737453616c653a20746f6b656e207072696365206d7573742090603170062652067726561746572207468616e203607c1b949660208b97519762461bcd60e51b8952880152860152840152820152fd5b8d80fd5b8334610ef55780600319360112610ef557610ead61158f565b60018054610100600160a81b03198116909155819060081c6001600160a01b03167f8be0079c531659141344cd1fd0a4f28419497f9722a3daafe3b4186f6b6457e08280a380f35b80fd5b91905034610250573660031901126101af5735801515908181036102505760243591610f2261158f565b60ff8019600f5416911617600f5580610f44575b610f3e575080f35b60105580f35b50801515610f36565b5050346101af57816003193601126101af57517f00000000000000000000000000000000000000000000000000000000000000006001600160a01b03168152602090f35b5050346101af57816003193601126101af5760209060ff6001541690519015158152f35b91905034610250578060031936011261025057813567ffffffffffffffff811161115c57610fe6903690840161155e565b92610fef61154f565b90610ff861158f565b841561110d57606485116110b8575090928115159190855b81811061101b578680f35b6110b3906001600160a01b036110468161103e61103985888d61175a565b611780565b1615156116ea565b8061105561103984878c61175a565b1689527ff93f9a76c1bf3444d22400a00cb9fe990e6abe9dbb333fda48859cfee864543d60209160098352611098878a8d209060ff801983541691151516179055565b6110a661103985888d61175a565b16918851888152a261174b565b611010565b608490602085519162461bcd60e51b8352820152602960248201527f57686974656c69737453616c653a20746f6f206d616e79206163636f756e7473604482015268040d2dc40c4c2e8c6d60bb1b6064820152fd5b608490602085519162461bcd60e51b8352820152602360248201527f57686974656c69737453616c653a20656d707479206163636f756e747320617260448201526272617960e81b6064820152fd5b8380fd5b90503461025057816003193601126102505761117a611534565b926024359067ffffffffffffffff8211610ef55750926111a26111a89260209536910161155e565b916117bf565b90519015158152f35b5050346101af57816003193601126101af576020906111a8611794565b5050346101af5760203660031901126101af5760209181906001600160a01b036111f6611534565b168152600c845220549051908152f35b90503461025057826003193601126102505761122061163e565b60ff600f5416156113ad57601054421061135f57338352600b60205281832090815490811561131257600383019081549060ff82166112c1575060ff1916600117905561128e90337f0000000000000000000000000000000000000000000000000000000000000000611661565b5490519081527f896e034966eaaf1adc54acc0f257056febbd300c9e47182cf761982cf1f5e43060203392a26001815580f35b608490602087519162461bcd60e51b8352820152602560248201527f57686974656c69737453616c653a20746f6b656e7320616c726561647920636c604482015264185a5b595960da1b6064820152fd5b608490602085519162461bcd60e51b8352820152602160248201527f57686974656c69737453616c653a206e6f20746f6b656e7320746f20636c61696044820152606d60f81b6064820152fd5b6020608492519162461bcd60e51b8352820152602360248201527f57686974656c69737453616c653a20636c61696d696e67206e6f7420737461726044820152621d195960ea1b6064820152fd5b6020608492519162461bcd60e51b8352820152602360248201527f57686974656c69737453616c653a20636c61696d696e67206e6f7420656e61626044820152621b195960ea1b6064820152fd5b90503461025057826003193601126102505761141561158f565b6001549060ff821615611457575060ff1916600155513381527f5db9ee0a495bf2e6ff9c91a7834c1ba4fdd244a5e8aa4e537bd38aeae4b073aa90602090a180f35b8251638dfc202b60e01b8152fd5b5050346101af57816003193601126101af57602090600a549051908152f35b5050346101af57816003193601126101af5760209060ff600f541690519015158152f35b5050346101af57806003193601126101af577ff93f9a76c1bf3444d22400a00cb9fe990e6abe9dbb333fda48859cfee864543d60206114e5611534565b6114ed61154f565b906114f661158f565b6001600160a01b03169361150b8515156116ea565b8486526009835261152a828288209060ff801983541691151516179055565b519015158152a280f35b600435906001600160a01b038216820361154a57565b600080fd5b60243590811515820361154a57565b9181601f8401121561154a5782359167ffffffffffffffff831161154a576020808501948460051b01011161154a57565b60015460081c6001600160a01b031633036115a657565b60405163118cdaa760e01b8152336004820152602490fd5b919082018092116115cb57565b634e487b7160e01b600052601160045260246000fd5b6080810190811067ffffffffffffffff8211176115fd57604052565b634e487b7160e01b600052604160045260246000fd5b919082039182116115cb57565b60ff6001541661162c57565b60405163d93c066560e01b8152600490fd5b60026000541461164f576002600055565b604051633ee5aeb560e01b8152600490fd5b9160006020916040518381019163a9059cbb60e01b835260018060a01b038096166024830152604482015260448152611699816115e1565b519082865af1156116de576000513d6116d557508082163b155b6116bb575050565b604051635274afe760e01b81529116600482015260249150fd5b600114156116b3565b6040513d6000823e3d90fd5b156116f157565b60405162461bcd60e51b815260206004820152602c60248201527f57686974656c69737453616c653a2063616e6e6f742077686974656c6973742060448201526b7a65726f206164647265737360a01b6064820152608490fd5b60001981146115cb5760010190565b919081101561176a5760051b0190565b634e487b7160e01b600052603260045260246000fd5b356001600160a01b038116810361154a5790565b600654421015806117b3575b806117a85790565b50600d546005541190565b506007544211156117a0565b919060009260018060a01b03811684526020906009825260409160ff838720541661192557600a54918215158061191c575b6117fe5750505050505090565b90919294968596949651908382016060936bffffffffffffffffffffffff1990851b168152601483528783019867ffffffffffffffff91848b10838c1117611908578a8a528451902091808c116119085760059b808d1b91603f8301601f191687018c019081118d8210176118f4578b528b52858501908201913683116118f0578790915b8383106118e057505050509486955b89518710156118d357868b1b840185015190818110156118c357885285526118bd8888205b9661174b565b95611892565b90885285526118bd8888206118b7565b1498509650505050505050565b8235815291810191889101611883565b8980fd5b634e487b7160e01b8b52604160045260248bfd5b634e487b7160e01b89526041600452602489fd5b508515156117f1565b50505050505060019056fea2646970667358221220b015159537f71fbb359581ff1afa7437e49d48870009d90b5977b976cb10b62b64736f6c63430008140033",
  "linkReferences": {},
  "deployedLinkReferences": {}
}