{
  "_format": "hh-sol-artifact-1",
  "contractName": "WhitelistSale",
  "sourceName": "contracts/WhitelistSale.sol",
  "abi": [
    {
      "inputs": [
        {
          "internalType": "address",
          "name": "_token",
          "type": "address"
        },
        {
          "internalType": "address",
          "name": "_treasury",
          "type": "address"
        },
        {
          "internalType": "uint256",
          "name": "_tokenPrice",
          "type": "uint256"
        },
        {
          "internalType": "uint256",
          "name": "_minPurchase",
          "type": "uint256"
        },
        {
          "internalType": "uint256",
          "name": "_maxPurchase",
          "type": "uint256"
        },
        {
          "internalType": "uint256",
          "name": "_maxSupply",
          "type": "uint256"
        },
        {
          "internalType": "uint256",
          "name": "_startTime",
          "type": "uint256"
        },
        {
          "internalType": "uint256",
          "name": "_endTime",
          "type": "uint256"
        },
        {
          "internalType": "address",
          "name": "_initialOwner",
          "type": "address"
        }
      ],
      "stateMutability": "nonpayable",
      "type": "constructor"
    },
    {
      "inputs": [],
      "name": "EnforcedPause",
      "type": "error"
    },
    {
      "inputs": [],
      "name": "ExpectedPause",
      "type": "error"
    },
    {
      "inputs": [
        {
          "internalType": "address",
          "name": "owner",
          "type": "address"
        }
      ],
      "name": "OwnableInvalidOwner",
      "type": "error"
    },
    {
      "inputs": [
        {
          "internalType": "address",
          "name": "account",
          "type": "address"
        }
      ],
      "name": "OwnableUnauthorizedAccount",
      "type": "error"
    },
    {
      "inputs": [],
      "name": "ReentrancyGuardReentrantCall",
      "type": "error"
    },
    {
      "inputs": [
        {
          "internalType": "address",
          "name": "token",
          "type": "address"
        }
      ],
      "name": "SafeERC20FailedOperation",
      "type": "error"
    },
    {
      "anonymous": false,
      "inputs": [
        {
          "indexed": true,
          "internalType": "address",
          "name": "token",
          "type": "address"
        },
        {
          "indexed": false,
          "internalType": "uint256",
          "name": "amount",
          "type": "uint256"
        }
      ],
      "name": "EmergencyWithdraw",
      "type": "event"
    },
    {
      "anonymous": false,
      "inputs": [
        {
          "indexed": false,
          "internalType": "bytes32",
          "name": "newRoot",
          "type": "bytes32"
        }
      ],
      "name": "MerkleRootUpdated",
      "type": "event"
    },
    {
      "anonymous": false,
      "inputs": [
        {
          "indexed": true,
          "internalType": "address",
          "name": "previousOwner",
          "type": "address"
        },
        {
          "indexed": true,
          "internalType": "address",
          "name": "newOwner",
          "type": "address"
        }
      ],
      "name": "OwnershipTransferred",
      "type": "event"
    },
    {
      "anonymous": false,
      "inputs": [
        {
          "indexed": false,
          "internalType": "address",
          "name": "account",
          "type": "address"
        }
      ],
      "name": "Paused",
      "type": "event"
    },
    {
      "anonymous": false,
      "inputs": [],
      "name": "SaleConfigUpdated",
      "type": "event"
    },
    {
      "anonymous": false,
      "inputs": [
        {
          "indexed": true,
          "internalType": "address",
          "name": "buyer",
          "type": "address"
        },
        {
          "indexed": false,
          "internalType": "uint256",
          "name": "tokenAmount",
          "type": "uint256"
        },
        {
          "indexed": false,
          "internalType": "uint256",
          "name": "ethAmount",
          "type": "uint256"
        },
        {
          "indexed": false,
          "internalType": "uint256",
          "name": "timestamp",
          "type": "uint256"
        }
      ],
      "name": "TokenPurchase",
      "type": "event"
    },
    {
      "anonymous": false,
      "inputs": [
        {
          "indexed": true,
          "internalType": "address",
          "name": "buyer",
          "type": "address"
        },
        {
          "indexed": false,
          "internalType": "uint256",
          "name": "amount",
          "type": "uint256"
        }
      ],
      "name": "TokensClaimed",
      "type": "event"
    },
    {
      "anonymous": false,
      "inputs": [
        {
          "indexed": false,
          "internalType": "address",
          "name": "account",
          "type": "address"
        }
      ],
      "name": "Unpaused",
      "type": "event"
    },
    {
      "anonymous": false,
      "inputs": [
        {
          "indexed": true,
          "internalType": "address",
          "name": "account",
          "type": "address"
        },
        {
          "indexed": false,
          "internalType": "bool",
          "name": "whitelisted",
          "type": "bool"
        }
      ],
      "name": "WhitelistUpdated",
      "type": "event"
    },
    {
      "inputs": [],
      "name": "claimEnabled",
      "outputs": [
        {
          "internalType": "bool",
          "name": "",
          "type": "bool"
        }
      ],
      "stateMutability": "view",
      "type": "function"
    },
    {
      "inputs": [],
      "name": "claimStartTime",
      "outputs": [
        {
          "internalType": "uint256",
          "name": "",
          "type": "uint256"
        }
      ],
      "stateMutability": "view",
      "type": "function"
    },
    {
      "inputs": [],
      "name": "claimTokens",
      "outputs": [],
      "stateMutability": "nonpayable",
      "type": "function"
    },
    {
      "inputs": [
        {
          "internalType": "address",
          "name": "tokenAddress",
          "type": "address"
        },
        {
          "internalType": "uint256",
          "name": "amount",
          "type": "uint256"
        }
      ],
      "name": "emergencyWithdraw",
      "outputs": [],
      "stateMutability": "nonpayable",
      "type": "function"
    },
    {
      "inputs": [],
      "name": "emergencyWithdrawETH",
      "outputs": [],
      "stateMutability": "nonpayable",
      "type": "function"
    },
    {
      "inputs": [
        {
          "internalType": "address",
          "name": "buyer",
          "type": "address"
        }
      ],
      "name": "getClaimableAmount",
      "outputs": [
        {
          "internalType": "uint256",
          "name": "",
          "type": "uint256"
        }
      ],
      "stateMutability": "view",
      "type": "function"
    },
    {
      "inputs": [
        {
          "internalType": "address",
          "name": "buyer",
          "type": "address"
        }
      ],
      "name": "getPurchaseInfo",
      "outputs": [
        {
          "internalType": "uint256",
          "name": "totalPurchased",
          "type": "uint256"
        },
        {
          "internalType": "uint256",
          "name": "totalClaimed",
          "type": "uint256"
        },
        {
          "internalType": "uint256",
          "name": "ethSpent",
          "type": "uint256"
        },
        {
          "internalType": "uint256",
          "name": "lastPurchaseTime",
          "type": "uint256"
        }
      ],
      "stateMutability": "view",
      "type": "function"
    },
    {
      "inputs": [],
      "name": "isSaleActive",
      "outputs": [
        {
          "internalType": "bool",
          "name": "",
          "type": "bool"
        }
      ],
      "stateMutability": "view",
      "type": "function"
    },
    {
      "inputs": [
        {
          "internalType": "address",
          "name": "account",
          "type": "address"
        },
        {
          "internalType": "bytes32[]",
          "name": "merkleProof",
          "type": "bytes32[]"
        }
      ],
      "name": "isWhitelisted",
      "outputs": [
        {
          "internalType": "bool",
          "name": "",
          "type": "bool"
        }
      ],
      "stateMutability": "view",
      "type": "function"
    },
    {
      "inputs": [],
      "name": "merkleRoot",
      "outputs": [
        {
          "internalType": "bytes32",
          "name": "",
          "type": "bytes32"
        }
      ],
      "stateMutability": "view",
      "type": "function"
    },
    {
      "inputs": [],
      "name": "owner",
      "outputs": [
        {
          "internalType": "address",
          "name": "",
          "type": "address"
        }
      ],
      "stateMutability": "view",
      "type": "function"
    },
    {
      "inputs": [],
      "name": "pause",
      "outputs": [],
      "stateMutability": "nonpayable",
      "type": "function"
    },
    {
      "inputs": [],
      "name": "paused",
      "outputs": [
        {
          "internalType": "bool",
          "name": "",
          "type": "bool"
        }
      ],
      "stateMutability": "view",
      "type": "function"
    },
    {
      "inputs": [
        {
          "internalType": "uint256",
          "name": "tokenAmount",
          "type": "uint256"
        },
        {
          "internalType": "bytes32[]",
          "name": "merkleProof",
          "type": "bytes32[]"
        }
      ],
      "name": "purchaseTokens",
      "outputs": [],
      "stateMutability": "payable",
      "type": "function"
    },
    {
      "inputs": [
        {
          "internalType": "address",
          "name": "",
          "type": "address"
        }
      ],
      "name": "purchases",
      "outputs": [
        {
          "internalType": "uint256",
          "name": "totalPurchased",
          "type": "uint256"
        },
        {
          "internalType": "uint256",
          "name": "totalClaimed",
          "type": "uint256"
        },
        {
          "internalType": "uint256",
          "name": "ethSpent",
          "type": "uint256"
        },
        {
          "internalType": "uint256",
          "name": "lastPurchaseTime",
          "type": "uint256"
        }
      ],
      "stateMutability": "view",
      "type": "function"
    },
    {
      "inputs": [],
      "name": "remainingTokens",
      "outputs": [
        {
          "internalType": "uint256",
          "name": "",
          "type": "uint256"
        }
      ],
      "stateMutability": "view",
      "type": "function"
    },
    {
      "inputs": [],
      "name": "renounceOwnership",
      "outputs": [],
      "stateMutability": "nonpayable",
      "type": "function"
    },
    {
      "inputs": [],
      "name": "saleConfig",
      "outputs": [
        {
          "internalType": "uint256",
          "name": "tokenPrice",
          "type": "uint256"
        },
        {
          "internalType": "uint256",
          "name": "minPurchase",
          "type": "uint256"
        },
        {
          "internalType": "uint256",
          "name": "maxPurchase",
          "type": "uint256"
        },
        {
          "internalType": "uint256",
          "name": "maxSupply",
          "type": "uint256"
        },
        {
          "internalType": "uint256",
          "name": "startTime",
          "type": "uint256"
        },
        {
          "internalType": "uint256",
          "name": "endTime",
          "type": "uint256"
        },
        {
          "internalType": "bool",
          "name": "whitelistRequired",
          "type": "bool"
        }
      ],
      "stateMutability": "view",
      "type": "function"
    },
    {
      "inputs": [
        {
          "internalType": "bool",
          "name": "_enabled",
          "type": "bool"
        },
        {
          "internalType": "uint256",
          "name": "_claimStartTime",
          "type": "uint256"
        }
      ],
      "name": "setClaimEnabled",
      "outputs": [],
      "stateMutability": "nonpayable",
      "type": "function"
    },
    {
      "inputs": [
        {
          "internalType": "bytes32",
          "name": "_merkleRoot",
          "type": "bytes32"
        }
      ],
      "name": "setMerkleRoot",
      "outputs": [],
      "stateMutability": "nonpayable",
      "type": "function"
    },
    {
      "inputs": [],
      "name": "token",
      "outputs": [
        {
          "internalType": "contract IERC20",
          "name": "",
          "type": "address"
        }
      ],
      "stateMutability": "view",
      "type": "function"
    },
    {
      "inputs": [],
      "name": "totalEthRaised",
      "outputs": [
        {
          "internalType": "uint256",
          "name": "",
          "type": "uint256"
        }
      ],
      "stateMutability": "view",
      "type": "function"
    },
    {
      "inputs": [
        {
          "internalType": "address",
          "name": "",
          "type": "address"
        }
      ],
      "name": "totalPurchased",
      "outputs": [
        {
          "internalType": "uint256",
          "name": "",
          "type": "uint256"
        }
      ],
      "stateMutability": "view",
      "type": "function"
    },
    {
      "inputs": [],
      "name": "totalSold",
      "outputs": [
        {
          "internalType": "uint256",
          "name": "",
          "type": "uint256"
        }
      ],
      "stateMutability": "view",
      "type": "function"
    },
    {
      "inputs": [
        {
          "internalType": "address",
          "name": "newOwner",
          "type": "address"
        }
      ],
      "name": "transferOwnership",
      "outputs": [],
      "stateMutability": "nonpayable",
      "type": "function"
    },
    {
      "inputs": [],
      "name": "treasury",
      "outputs": [
        {
          "internalType": "address",
          "name": "",
          "type": "address"
        }
      ],
      "stateMutability": "view",
      "type": "function"
    },
    {
      "inputs": [],
      "name": "unpause",
      "outputs": [],
      "stateMutability": "nonpayable",
      "type": "function"
    },
    {
      "inputs": [
        {
          "internalType": "uint256",
          "name": "_tokenPrice",
          "type": "uint256"
        },
        {
          "internalType": "uint256",
          "name": "_minPurchase",
          "type": "uint256"
        },
        {
          "internalType": "uint256",
          "name": "_maxPurchase",
          "type": "uint256"
        },
        {
          "internalType": "uint256",
          "name": "_maxSupply",
          "type": "uint256"
        },
        {
          "internalType": "uint256",
          "name": "_startTime",
          "type": "uint256"
        },
        {
          "internalType": "uint256",
          "name": "_endTime",
          "type": "uint256"
        },
        {
          "internalType": "bool",
          "name": "_whitelistRequired",
          "type": "bool"
        }
      ],
      "name": "updateSaleConfig",
      "outputs": [],
      "stateMutability": "nonpayable",
      "type": "function"
    },
    {
      "inputs": [
        {
          "internalType": "address",
          "name": "account",
          "type": "address"
        },
        {
          "internalType": "bool",
          "name": "whitelisted",
          "type": "bool"
        }
      ],
      "name": "updateWhitelist",
      "outputs": [],
      "stateMutability": "nonpayable",
      "type": "function"
    },
    {
      "inputs": [
        {
          "internalType": "address[]",
          "name": "accounts",
          "type": "address[]"
        },
        {
          "internalType": "bool",
          "name": "whitelisted",
          "type": "bool"
        }
      ],
      "name": "updateWhitelistBatch",
      "outputs": [],
      "stateMutability": "nonpayable",
      "type": "function"
    },
    {
      "inputs": [
        {
          "internalType": "address",
          "name": "",
          "type": "address"
        }
      ],
      "name": "whitelist",
      "outputs": [
        {
          "internalType": "bool",
          "name": "",
          "type": "bool"
        }
      ],
      "stateMutability": "view",
      "type": "function"
    }
  ],
  "bytecode": "0x60c0346200055b576001600160401b0390601f62001ebd38819003918201601f1916830191848311848410176200023757808492610120946040528339810103126200055b57620000508162000560565b916200005f6020830162000560565b906040830151606084015160808501519160a08601519360c0870151956200009061010060e08a0151990162000560565b6001600055986001600160a01b038a1615620005425760018054610100600160a81b0319811660088d811b610100600160a81b0316919091179092556040519b6001600160a01b03908116929190911c167f8be0079c531659141344cd1fd0a4f28419497f9722a3daafe3b4186f6b6457e0600080a36001600160a01b0316988915620004ec57506001600160a01b0381169889156200049057831562000431578415620003d157848610620003665786156200030857428810620002ab57878911156200024d5760805260a0526040519060e0820190811182821017620002375760019160c0916040528381528460208201528560408201528660608201528760808201528860a0820152015260025560035560045560055560065560075560ff19600181600854161760085581600052600960205260016040600020918254161790557ff93f9a76c1bf3444d22400a00cb9fe990e6abe9dbb333fda48859cfee864543d602060405160018152a2604051611947908162000576823960805181818161018b015281816104360152611295015260a0518181816106a60152610f7b0152f35b634e487b7160e01b600052604160045260246000fd5b60405162461bcd60e51b815260206004820152603060248201527f57686974656c69737453616c653a20656e642074696d65206d7573742062652060448201526f61667465722073746172742074696d6560801b6064820152608490fd5b60405162461bcd60e51b815260206004820152602f60248201527f57686974656c69737453616c653a2073746172742074696d65206d757374206260448201526e6520696e207468652066757475726560881b6064820152608490fd5b60405162461bcd60e51b815260206004820152603060248201527f57686974656c69737453616c653a206d617820737570706c79206d757374206260448201526f0652067726561746572207468616e20360841b6064820152608490fd5b60405162461bcd60e51b815260206004820152603360248201527f57686974656c69737453616c653a206d6178207075726368617365206d75737460448201527f206265203e3d206d696e207075726368617365000000000000000000000000006064820152608490fd5b60405162461bcd60e51b815260206004820152603260248201527f57686974656c69737453616c653a206d696e207075726368617365206d75737460448201527102062652067726561746572207468616e20360741b6064820152608490fd5b60405162461bcd60e51b815260206004820152603160248201527f57686974656c69737453616c653a20746f6b656e207072696365206d75737420604482015270062652067726561746572207468616e203607c1b6064820152608490fd5b60405162461bcd60e51b815260206004820152602e60248201527f57686974656c69737453616c653a2074726561737572792063616e6e6f74206260448201526d65207a65726f206164647265737360901b6064820152608490fd5b62461bcd60e51b815260206004820152602b60248201527f57686974656c69737453616c653a20746f6b656e2063616e6e6f74206265207a60448201526a65726f206164647265737360a81b6064820152608490fd5b604051631e4fbdf760e01b815260006004820152602490fd5b600080fd5b51906001600160a01b03821682036200055b5756fe6040608081526004908136101561001557600080fd5b600091823560e01c9081630d392cd9146114335781632866ed211461140f5781632eb4a7ab146113f05781633f4ba83a1461138657816348c54b9d1461121f578163497aef28146111e7578163564566a8146111ca5781635a23dd99146111795781635c0ef3fa14610fce5781635c975abb14610faa57816361d027b314610f6657816369d77a1914610f11578163715018a614610ead578163722cf8d214610c065781637cb6475914610bb8578163842a77d314610b505781638453601714610aaa5781638456cb5914610a505781638da5cb5b14610a2357816390aa0b0f146109cd5781639106d7ba146109ae578163938d2fde1461056057816395ccea67146103f95781639b19251a146103bb578163a6a11bb11461039c578163bf58390314610378578163c9e904be14610359578163e12f3a61146102eb578163eb5d1c391461025f578163f2fde38b146101be575063fc0c546a1461017857600080fd5b346101ba57816003193601126101ba57517f00000000000000000000000000000000000000000000000000000000000000006001600160a01b03168152602090f35b5080fd5b90503461025b57602036600319011261025b576101d96114bf565b6101e161151a565b6001600160a01b0381811693909290841561024557505060018054610100600160a81b03198116600893841b610100600160a81b031617909155901c167f8be0079c531659141344cd1fd0a4f28419497f9722a3daafe3b4186f6b6457e08380a380f35b51631e4fbdf760e01b8152908101859052602490fd5b8280fd5b5050346101ba5760203660031901126101ba579081906001600160a01b036102856114bf565b168152600b60205220906102e760608251936102a085611610565b805493848652600182015495866020820152600360028401549384848401520154938491015251948594859094939260609260808301968352602083015260408201520152565b0390f35b5050346101ba5760203660031901126101ba576020916103529082906001600160a01b036103176114bf565b168152600b855220825161032a81611610565b815490818152606060036001850154948589850152600281015488850152015491015261156c565b9051908152f35b5050346101ba57816003193601126101ba57602090600e549051908152f35b5050346101ba57816003193601126101ba57602090610352600554600d549061156c565b5050346101ba57816003193601126101ba576020906010549051908152f35b5050346101ba5760203660031901126101ba5760209160ff9082906001600160a01b036103e66114bf565b1681526009855220541690519015158152f35b9190503461025b578060031936011261025b576104146114bf565b906024359161042161151a565b6001600160a01b0390811693841561050957817f000000000000000000000000000000000000000000000000000000000000000016851461049d575b5091602091610495827f5fafa99d0643513820be26656b45130b01e1c03062e1266bf36f88cbd3bd96959560015460081c1687611642565b51908152a280f35b6104ac600554600d549061156c565b84111561045d57608490602084519162461bcd60e51b8352820152602a60248201527f57686974656c69737453616c653a2063616e6e6f7420776974686472617720736044820152696f6c6420746f6b656e7360b01b6064820152fd5b608490602084519162461bcd60e51b8352820152602b60248201527f57686974656c69737453616c653a20746f6b656e20616464726573732063616e60448201526a6e6f74206265207a65726f60a81b6064820152fd5b9180915060031936011261025b57813591602490813567ffffffffffffffff81116109aa5761059290369083016114e9565b919061059c611597565b6105a4611579565b6105ac611775565b1561095e57600354861061090e578154928387116108bc576105d087600d54611549565b600554106108705760ff60085416610809575b5050338652602091600c83526105fc8686892054611549565b116107b05760025480860290868204148615171561079e57670de0b6b3a7640000900492833410610753575050338552600b815282852061063e858254611549565b81556002810161064f848254611549565b9055600342910155338552600c815282852061066c858254611549565b905561067a84600d54611549565b600d5561068982600e54611549565b600e55813411610723575b8480838015610719575b8291829182917f00000000000000000000000000000000000000000000000000000000000000006001600160a01b031690f11561070f57825193845283015242908201527f347f5f0051b895093800553e6e78ef332849e2552639a4f5ffe66535788ae07860603392a26001815580f35b82513d86823e3d90fd5b6108fc915061069e565b84808080610731863461156c565b81811561074a575b3390f16106945782513d86823e3d90fd5b506108fc610739565b60849285519262461bcd60e51b8452830152808201527f57686974656c69737453616c653a20696e73756666696369656e7420455448206044820152631cd95b9d60e21b6064820152fd5b634e487b7160e01b8752601182528387fd5b925162461bcd60e51b8152928301526030908201527f57686974656c69737453616c653a206578636565647320696e6469766964756160448201526f1b081c1d5c98da185cd9481b1a5b5a5d60821b6064820152608490fd5b61081391336117a0565b1561081f5738806105e3565b608490602684602087519362461bcd60e51b85528401528201527f57686974656c69737453616c653a2061646472657373206e6f742077686974656044820152651b1a5cdd195960d21b6064820152fd5b855162461bcd60e51b81526020818501526021818701527f57686974656c69737453616c653a2065786365656473206d617820737570706c6044820152607960f81b6064820152608490fd5b855162461bcd60e51b81526020818501526027818701527f57686974656c69737453616c653a2065786365656473206d6178696d756d20706044820152667572636861736560c81b6064820152608490fd5b845162461bcd60e51b81526020818401526025818601527f57686974656c69737453616c653a2062656c6f77206d696e696d756d20707572604482015264636861736560d81b6064820152608490fd5b845162461bcd60e51b81526020818401526021818601527f57686974656c69737453616c653a2073616c65206973206e6f742061637469766044820152606560f81b6064820152608490fd5b8580fd5b5050346101ba57816003193601126101ba57602090600d549051908152f35b90503461025b578260031936011261025b5760e09250600254916003549154600554600654916007549360ff6008541695815197885260208801528601526060850152608084015260a0830152151560c0820152f35b5050346101ba57816003193601126101ba57600154905160089190911c6001600160a01b03168152602090f35b5050346101ba57816003193601126101ba5760207f62e78cea01bee320cd4e420270b5ea74000d11b0c9f74754ebdbfc544b05a25891610a8e61151a565b610a96611579565b600160ff198154161760015551338152a180f35b90503461025b578260031936011261025b57610ac461151a565b4715610b0457508180808060018060a01b0360015460081c164790828215610afb575bf115610af1575080f35b51903d90823e3d90fd5b506108fc610ae7565b6020608492519162461bcd60e51b8352820152602160248201527f57686974656c69737453616c653a206e6f2045544820746f20776974686472616044820152607760f81b6064820152fd5b5050346101ba5760203660031901126101ba579081906001600160a01b03610b766114bf565b168152600b60205220906102e7825491600184015493600360028201549101549151948594859094939260609260808301968352602083015260408201520152565b90503461025b57602036600319011261025b577f90004c04698bc3322499a575ed3752dd4abf33e0a7294c06a787a0fe01bea941916020913590610bfa61151a565b81600a5551908152a180f35b9190503461025b5760e036600319011261025b578135906024803560449485359160649586359460849687359760a4359960c4359b8c1515809d03610ea957610c4d61151a565b8515610e51578615610df857868910610d9e57600d548a10610d3a578a8c1115610ce3575050505167ffffffffffffffff60e08201918210911117610cd257506002556003555560055560065560075560ff8019600854169116176008557f8aeb0be5833bbe27d33dca0667b137c3cf314b524b7545b022697b7debe27e128180a180f35b634e487b7160e01b8a526041845289fd5b7f57686974656c69737453616c653a20656e642074696d65206d757374206265209060306f61667465722073746172742074696d6560801b949660208b97519762461bcd60e51b8952880152860152840152820152fd5b7f57686974656c69737453616c653a206d617820737570706c792063616e6e6f749060387f206265206c657373207468616e20746f74616c20736f6c640000000000000000949660208b97519762461bcd60e51b8952880152860152840152820152fd5b7f57686974656c69737453616c653a206d6178207075726368617365206d75737490603372206265203e3d206d696e20707572636861736560681b949660208b97519762461bcd60e51b8952880152860152840152820152fd5b7f57686974656c69737453616c653a206d696e207075726368617365206d7573749060327102062652067726561746572207468616e20360741b949660208b97519762461bcd60e51b8952880152860152840152820152fd5b7f57686974656c69737453616c653a20746f6b656e207072696365206d7573742090603170062652067726561746572207468616e203607c1b949660208b97519762461bcd60e51b8952880152860152840152820152fd5b8d80fd5b8334610f0e5780600319360112610f0e57610ec661151a565b60018054610100600160a81b03198116909155819060081c6001600160a01b03167f8be0079c531659141344cd1fd0a4f28419497f9722a3daafe3b4186f6b6457e08280a380f35b80fd5b9190503461025b573660031901126101ba57358015159081810361025b5760243591610f3b61151a565b60ff8019600f5416911617600f5580610f5d575b610f57575080f35b60105580f35b50801515610f4f565b5050346101ba57816003193601126101ba57517f00000000000000000000000000000000000000000000000000000000000000006001600160a01b03168152602090f35b5050346101ba57816003193601126101ba5760209060ff6001541690519015158152f35b9190503461025b578060031936011261025b57813567ffffffffffffffff811161117557610fff90369084016114e9565b926110086114da565b9061101161151a565b841561112657606485116110d1575090928115159190855b818110611034578680f35b6110cc906001600160a01b0361105f8161105761105285888d61173b565b611761565b1615156116cb565b8061106e61105284878c61173b565b1689527ff93f9a76c1bf3444d22400a00cb9fe990e6abe9dbb333fda48859cfee864543d602091600983526110b1878a8d209060ff801983541691151516179055565b6110bf61105285888d61173b565b16918851888152a261172c565b611029565b608490602085519162461bcd60e51b8352820152602960248201527f57686974656c69737453616c653a20746f6f206d616e79206163636f756e7473604482015268040d2dc40c4c2e8c6d60bb1b6064820152fd5b608490602085519162461bcd60e51b8352820152602360248201527f57686974656c69737453616c653a20656d707479206163636f756e747320617260448201526272617960e81b6064820152fd5b8380fd5b90503461025b578160031936011261025b576111936114bf565b926024359067ffffffffffffffff8211610f0e5750926111bb6111c1926020953691016114e9565b916117a0565b90519015158152f35b5050346101ba57816003193601126101ba576020906111c1611775565b5050346101ba5760203660031901126101ba5760209181906001600160a01b0361120f6114bf565b168152600c845220549051908152f35b90503461025b578260031936011261025b57611239611597565b60ff600f5416156113385760105442106112ea5750338252600b60205280822090600182549261126a8415156115ba565b0161128c61127a8254809561156c565b80946112878215156115ba565b611549565b90556112b982337f0000000000000000000000000000000000000000000000000000000000000000611642565b519081527f896e034966eaaf1adc54acc0f257056febbd300c9e47182cf761982cf1f5e43060203392a26001815580f35b6020608492519162461bcd60e51b8352820152602360248201527f57686974656c69737453616c653a20636c61696d696e67206e6f7420737461726044820152621d195960ea1b6064820152fd5b6020608492519162461bcd60e51b8352820152602360248201527f57686974656c69737453616c653a20636c61696d696e67206e6f7420656e61626044820152621b195960ea1b6064820152fd5b90503461025b578260031936011261025b576113a061151a565b6001549060ff8216156113e2575060ff1916600155513381527f5db9ee0a495bf2e6ff9c91a7834c1ba4fdd244a5e8aa4e537bd38aeae4b073aa90602090a180f35b8251638dfc202b60e01b8152fd5b5050346101ba57816003193601126101ba57602090600a549051908152f35b5050346101ba57816003193601126101ba5760209060ff600f541690519015158152f35b5050346101ba57806003193601126101ba577ff93f9a76c1bf3444d22400a00cb9fe990e6abe9dbb333fda48859cfee864543d60206114706114bf565b6114786114da565b9061148161151a565b6001600160a01b0316936114968515156116cb565b848652600983526114b5828288209060ff801983541691151516179055565b519015158152a280f35b600435906001600160a01b03821682036114d557565b600080fd5b6024359081151582036114d557565b9181601f840112156114d55782359167ffffffffffffffff83116114d5576020808501948460051b0101116114d557565b60015460081c6001600160a01b0316330361153157565b60405163118cdaa760e01b8152336004820152602490fd5b9190820180921161155657565b634e487b7160e01b600052601160045260246000fd5b9190820391821161155657565b60ff6001541661158557565b60405163d93c066560e01b8152600490fd5b6002600054146115a8576002600055565b604051633ee5aeb560e01b8152600490fd5b156115c157565b60405162461bcd60e51b815260206004820152602160248201527f57686974656c69737453616c653a206e6f20746f6b656e7320746f20636c61696044820152606d60f81b6064820152608490fd5b6080810190811067ffffffffffffffff82111761162c57604052565b634e487b7160e01b600052604160045260246000fd5b9160006020916040518381019163a9059cbb60e01b835260018060a01b03809616602483015260448201526044815261167a81611610565b519082865af1156116bf576000513d6116b657508082163b155b61169c575050565b604051635274afe760e01b81529116600482015260249150fd5b60011415611694565b6040513d6000823e3d90fd5b156116d257565b60405162461bcd60e51b815260206004820152602c60248201527f57686974656c69737453616c653a2063616e6e6f742077686974656c6973742060448201526b7a65726f206164647265737360a01b6064820152608490fd5b60001981146115565760010190565b919081101561174b5760051b0190565b634e487b7160e01b600052603260045260246000fd5b356001600160a01b03811681036114d55790565b60065442101580611794575b806117895790565b50600d546005541190565b50600754421115611781565b919060009260018060a01b03811684526020906009825260409160ff838720541661190657600a5491821515806118fd575b6117df5750505050505090565b90919294968596949651908382016060936bffffffffffffffffffffffff1990851b168152601483528783019867ffffffffffffffff91848b10838c11176118e9578a8a528451902091808c116118e95760059b808d1b91603f8301601f191687018c019081118d8210176118d5578b528b52858501908201913683116118d1578790915b8383106118c157505050509486955b89518710156118b457868b1b840185015190818110156118a4578852855261189e8888205b9661172c565b95611873565b908852855261189e888820611898565b1498509650505050505050565b8235815291810191889101611864565b8980fd5b634e487b7160e01b8b52604160045260248bfd5b634e487b7160e01b89526041600452602489fd5b508515156117d2565b50505050505060019056fea26469706673582212204635c314e0694a7056bfa5ef59563f130ec5bc97e832d52654e835884d9b972664736f6c63430008140033",
  "linkReferences": {},
  "deployedLinkReferences": {}
}