{
  "_format": "hh-sol-artifact-1",
  "contractName": "WhitelistToken",
  "sourceName": "contracts/WhitelistToken.sol",
  "abi": [
    {
      "inputs": [
        {
          "internalType": "string",
          "name": "name",
          "type": "string"
        },
        {
          "internalType": "string",
          "name": "symbol",
          "type": "string"
        },
        {
          "internalType": "address",
          "name": "initialOwner",
          "type": "address"
        }
      ],
      "stateMutability": "nonpayable",
      "type": "constructor"
    },
    {
      "inputs": [
        {
          "internalType": "address",
          "name": "spender",
          "type": "address"
        },
        {
          "internalType": "uint256",
          "name": "allowance",
          "type": "uint256"
        },
        {
          "internalType": "uint256",
          "name": "needed",
          "type": "uint256"
        }
      ],
      "name": "ERC20InsufficientAllowance",
      "type": "error"
    },
    {
      "inputs": [
        {
          "internalType": "address",
          "name": "sender",
          "type": "address"
        },
        {
          "internalType": "uint256",
          "name": "balance",
          "type": "uint256"
        },
        {
          "internalType": "uint256",
          "name": "needed",
          "type": "uint256"
        }
      ],
      "name": "ERC20InsufficientBalance",
      "type": "error"
    },
    {
      "inputs": [
        {
          "internalType": "address",
          "name": "approver",
          "type": "address"
        }
      ],
      "name": "ERC20InvalidApprover",
      "type": "error"
    },
    {
      "inputs": [
        {
          "internalType": "address",
          "name": "receiver",
          "type": "address"
        }
      ],
      "name": "ERC20InvalidReceiver",
      "type": "error"
    },
    {
      "inputs": [
        {
          "internalType": "address",
          "name": "sender",
          "type": "address"
        }
      ],
      "name": "ERC20InvalidSender",
      "type": "error"
    },
    {
      "inputs": [
        {
          "internalType": "address",
          "name": "spender",
          "type": "address"
        }
      ],
      "name": "ERC20InvalidSpender",
      "type": "error"
    },
    {
      "inputs": [],
      "name": "EnforcedPause",
      "type": "error"
    },
    {
      "inputs": [],
      "name": "ExpectedPause",
      "type": "error"
    },
    {
      "inputs": [
        {
          "internalType": "address",
          "name": "owner",
          "type": "address"
        }
      ],
      "name": "OwnableInvalidOwner",
      "type": "error"
    },
    {
      "inputs": [
        {
          "internalType": "address",
          "name": "account",
          "type": "address"
        }
      ],
      "name": "OwnableUnauthorizedAccount",
      "type": "error"
    },
    {
      "inputs": [],
      "name": "ReentrancyGuardReentrantCall",
      "type": "error"
    },
    {
      "anonymous": false,
      "inputs": [
        {
          "indexed": true,
          "internalType": "address",
          "name": "owner",
          "type": "address"
        },
        {
          "indexed": true,
          "internalType": "address",
          "name": "spender",
          "type": "address"
        },
        {
          "indexed": false,
          "internalType": "uint256",
          "name": "value",
          "type": "uint256"
        }
      ],
      "name": "Approval",
      "type": "event"
    },
    {
      "anonymous": false,
      "inputs": [
        {
          "indexed": true,
          "internalType": "address",
          "name": "to",
          "type": "address"
        },
        {
          "indexed": false,
          "internalType": "uint256",
          "name": "amount",
          "type": "uint256"
        }
      ],
      "name": "Mint",
      "type": "event"
    },
    {
      "anonymous": false,
      "inputs": [
        {
          "indexed": true,
          "internalType": "address",
          "name": "previousOwner",
          "type": "address"
        },
        {
          "indexed": true,
          "internalType": "address",
          "name": "newOwner",
          "type": "address"
        }
      ],
      "name": "OwnershipTransferred",
      "type": "event"
    },
    {
      "anonymous": false,
      "inputs": [
        {
          "indexed": false,
          "internalType": "address",
          "name": "account",
          "type": "address"
        }
      ],
      "name": "Paused",
      "type": "event"
    },
    {
      "anonymous": false,
      "inputs": [
        {
          "indexed": true,
          "internalType": "address",
          "name": "from",
          "type": "address"
        },
        {
          "indexed": true,
          "internalType": "address",
          "name": "to",
          "type": "address"
        },
        {
          "indexed": false,
          "internalType": "uint256",
          "name": "value",
          "type": "uint256"
        }
      ],
      "name": "Transfer",
      "type": "event"
    },
    {
      "anonymous": false,
      "inputs": [
        {
          "indexed": false,
          "internalType": "bool",
          "name": "restricted",
          "type": "bool"
        }
      ],
      "name": "TransferRestrictionsUpdated",
      "type": "event"
    },
    {
      "anonymous": false,
      "inputs": [
        {
          "indexed": false,
          "internalType": "address",
          "name": "account",
          "type": "address"
        }
      ],
      "name": "Unpaused",
      "type": "event"
    },
    {
      "anonymous": false,
      "inputs": [
        {
          "indexed": true,
          "internalType": "address",
          "name": "account",
          "type": "address"
        },
        {
          "indexed": false,
          "internalType": "bool",
          "name": "whitelisted",
          "type": "bool"
        }
      ],
      "name": "WhitelistUpdated",
      "type": "event"
    },
    {
      "inputs": [],
      "name": "MAX_SUPPLY",
      "outputs": [
        {
          "internalType": "uint256",
          "name": "",
          "type": "uint256"
        }
      ],
      "stateMutability": "view",
      "type": "function"
    },
    {
      "inputs": [
        {
          "internalType": "address",
          "name": "owner",
          "type": "address"
        },
        {
          "internalType": "address",
          "name": "spender",
          "type": "address"
        }
      ],
      "name": "allowance",
      "outputs": [
        {
          "internalType": "uint256",
          "name": "",
          "type": "uint256"
        }
      ],
      "stateMutability": "view",
      "type": "function"
    },
    {
      "inputs": [
        {
          "internalType": "address",
          "name": "spender",
          "type": "address"
        },
        {
          "internalType": "uint256",
          "name": "value",
          "type": "uint256"
        }
      ],
      "name": "approve",
      "outputs": [
        {
          "internalType": "bool",
          "name": "",
          "type": "bool"
        }
      ],
      "stateMutability": "nonpayable",
      "type": "function"
    },
    {
      "inputs": [
        {
          "internalType": "address",
          "name": "account",
          "type": "address"
        }
      ],
      "name": "balanceOf",
      "outputs": [
        {
          "internalType": "uint256",
          "name": "",
          "type": "uint256"
        }
      ],
      "stateMutability": "view",
      "type": "function"
    },
    {
      "inputs": [
        {
          "internalType": "uint256",
          "name": "value",
          "type": "uint256"
        }
      ],
      "name": "burn",
      "outputs": [],
      "stateMutability": "nonpayable",
      "type": "function"
    },
    {
      "inputs": [
        {
          "internalType": "address",
          "name": "account",
          "type": "address"
        },
        {
          "internalType": "uint256",
          "name": "value",
          "type": "uint256"
        }
      ],
      "name": "burnFrom",
      "outputs": [],
      "stateMutability": "nonpayable",
      "type": "function"
    },
    {
      "inputs": [],
      "name": "decimals",
      "outputs": [
        {
          "internalType": "uint8",
          "name": "",
          "type": "uint8"
        }
      ],
      "stateMutability": "view",
      "type": "function"
    },
    {
      "inputs": [
        {
          "internalType": "address",
          "name": "account",
          "type": "address"
        }
      ],
      "name": "isWhitelisted",
      "outputs": [
        {
          "internalType": "bool",
          "name": "",
          "type": "bool"
        }
      ],
      "stateMutability": "view",
      "type": "function"
    },
    {
      "inputs": [
        {
          "internalType": "address",
          "name": "to",
          "type": "address"
        },
        {
          "internalType": "uint256",
          "name": "amount",
          "type": "uint256"
        }
      ],
      "name": "mint",
      "outputs": [],
      "stateMutability": "nonpayable",
      "type": "function"
    },
    {
      "inputs": [],
      "name": "name",
      "outputs": [
        {
          "internalType": "string",
          "name": "",
          "type": "string"
        }
      ],
      "stateMutability": "view",
      "type": "function"
    },
    {
      "inputs": [],
      "name": "owner",
      "outputs": [
        {
          "internalType": "address",
          "name": "",
          "type": "address"
        }
      ],
      "stateMutability": "view",
      "type": "function"
    },
    {
      "inputs": [],
      "name": "pause",
      "outputs": [],
      "stateMutability": "nonpayable",
      "type": "function"
    },
    {
      "inputs": [],
      "name": "paused",
      "outputs": [
        {
          "internalType": "bool",
          "name": "",
          "type": "bool"
        }
      ],
      "stateMutability": "view",
      "type": "function"
    },
    {
      "inputs": [
        {
          "internalType": "address",
          "name": "token",
          "type": "address"
        },
        {
          "internalType": "address",
          "name": "to",
          "type": "address"
        },
        {
          "internalType": "uint256",
          "name": "amount",
          "type": "uint256"
        }
      ],
      "name": "recoverERC20",
      "outputs": [],
      "stateMutability": "nonpayable",
      "type": "function"
    },
    {
      "inputs": [
        {
          "internalType": "address payable",
          "name": "to",
          "type": "address"
        }
      ],
      "name": "recoverETH",
      "outputs": [],
      "stateMutability": "nonpayable",
      "type": "function"
    },
    {
      "inputs": [],
      "name": "remainingMintableSupply",
      "outputs": [
        {
          "internalType": "uint256",
          "name": "",
          "type": "uint256"
        }
      ],
      "stateMutability": "view",
      "type": "function"
    },
    {
      "inputs": [],
      "name": "renounceOwnership",
      "outputs": [],
      "stateMutability": "nonpayable",
      "type": "function"
    },
    {
      "inputs": [
        {
          "internalType": "bool",
          "name": "restricted",
          "type": "bool"
        }
      ],
      "name": "setTransferRestrictions",
      "outputs": [],
      "stateMutability": "nonpayable",
      "type": "function"
    },
    {
      "inputs": [],
      "name": "symbol",
      "outputs": [
        {
          "internalType": "string",
          "name": "",
          "type": "string"
        }
      ],
      "stateMutability": "view",
      "type": "function"
    },
    {
      "inputs": [],
      "name": "totalSupply",
      "outputs": [
        {
          "internalType": "uint256",
          "name": "",
          "type": "uint256"
        }
      ],
      "stateMutability": "view",
      "type": "function"
    },
    {
      "inputs": [
        {
          "internalType": "address",
          "name": "to",
          "type": "address"
        },
        {
          "internalType": "uint256",
          "name": "value",
          "type": "uint256"
        }
      ],
      "name": "transfer",
      "outputs": [
        {
          "internalType": "bool",
          "name": "",
          "type": "bool"
        }
      ],
      "stateMutability": "nonpayable",
      "type": "function"
    },
    {
      "inputs": [
        {
          "internalType": "address",
          "name": "from",
          "type": "address"
        },
        {
          "internalType": "address",
          "name": "to",
          "type": "address"
        },
        {
          "internalType": "uint256",
          "name": "value",
          "type": "uint256"
        }
      ],
      "name": "transferFrom",
      "outputs": [
        {
          "internalType": "bool",
          "name": "",
          "type": "bool"
        }
      ],
      "stateMutability": "nonpayable",
      "type": "function"
    },
    {
      "inputs": [
        {
          "internalType": "address",
          "name": "newOwner",
          "type": "address"
        }
      ],
      "name": "transferOwnership",
      "outputs": [],
      "stateMutability": "nonpayable",
      "type": "function"
    },
    {
      "inputs": [],
      "name": "transferRestricted",
      "outputs": [
        {
          "internalType": "bool",
          "name": "",
          "type": "bool"
        }
      ],
      "stateMutability": "view",
      "type": "function"
    },
    {
      "inputs": [],
      "name": "unpause",
      "outputs": [],
      "stateMutability": "nonpayable",
      "type": "function"
    },
    {
      "inputs": [
        {
          "internalType": "address",
          "name": "account",
          "type": "address"
        },
        {
          "internalType": "bool",
          "name": "whitelisted",
          "type": "bool"
        }
      ],
      "name": "updateWhitelist",
      "outputs": [],
      "stateMutability": "nonpayable",
      "type": "function"
    },
    {
      "inputs": [
        {
          "internalType": "address[]",
          "name": "accounts",
          "type": "address[]"
        },
        {
          "internalType": "bool",
          "name": "whitelisted",
          "type": "bool"
        }
      ],
      "name": "updateWhitelistBatch",
      "outputs": [],
      "stateMutability": "nonpayable",
      "type": "function"
    },
    {
      "inputs": [
        {
          "internalType": "address",
          "name": "",
          "type": "address"
        }
      ],
      "name": "whitelist",
      "outputs": [
        {
          "internalType": "bool",
          "name": "",
          "type": "bool"
        }
      ],
      "stateMutability": "view",
      "type": "function"
    },
    {
      "stateMutability": "payable",
      "type": "receive"
    }
  ],
  "bytecode": "0x60406080815234620004095762001b47803803806200001e816200040e565b9283398101606082820312620004095781516001600160401b0391908281116200040957816200005091850162000434565b9260209182820151848111620004095786916200006f91840162000434565b9101516001600160a01b03808216949092908583036200040957865181811162000300576003908154906001998a83811c93168015620003fe575b89841014620003e8578190601f9384811162000392575b508990848311600114620003225760009262000316575b505060001982851b1c1916908a1b1782555b8351928311620003005760049384548a81811c91168015620002f5575b89821014620002e057908183869594931162000286575b50889184116001146200021b576000936200020f575b505082891b92600019911b1c19161781555b8415620001f8575060058054610100600160a81b03198116600893841b610100600160a81b0316179091557ff93f9a76c1bf3444d22400a00cb9fe990e6abe9dbb333fda48859cfee864543d939285929190911c167f8be0079c531659141344cd1fd0a4f28419497f9722a3daafe3b4186f6b6457e0600080a3836006558260005260088152846000209360ff199481868254161790558551908152a260075416600755516116a09081620004a78239f35b6024906000885191631e4fbdf760e01b8352820152fd5b01519150388062000134565b91908a9450601f1984169286600052896000209360005b8b8282106200026f575050851162000254575b50505050811b01815562000146565b01519060f884600019921b161c191690553880808062000245565b8385015187558e9890960195938401930162000232565b909192935085600052886000208380870160051c8201928b8810620002d6575b918d918897969594930160051c01915b828110620002c65750506200011e565b600081558796508d9101620002b6565b92508192620002a6565b602286634e487b7160e01b6000525260246000fd5b90607f169062000107565b634e487b7160e01b600052604160045260246000fd5b015190503880620000d8565b908c9350601f19831691866000528b6000209260005b8d82821062000372575050841162000359575b505050811b018255620000ea565b015160001983871b60f8161c191690553880806200034b565b91929395968291958786015181550195019301908e959493929162000338565b90915084600052896000208480850160051c8201928c8610620003de575b918e91869594930160051c01915b828110620003ce575050620000c1565b600081558594508e9101620003be565b92508192620003b0565b634e487b7160e01b600052602260045260246000fd5b92607f1692620000aa565b600080fd5b6040519190601f01601f191682016001600160401b038111838210176200030057604052565b919080601f84011215620004095782516001600160401b03811162000300576020906200046a601f8201601f191683016200040e565b92818452828287010111620004095760005b8181106200049257508260009394955001015290565b85810183015184820184015282016200047c56fe608060409080825260049081361015610076575b50361561001f57600080fd5b6020608492519162461bcd60e51b8352820152602c60248201527f57686974656c697374546f6b656e3a20636f6e747261637420646f6573206e6f60448201526b0e840c2c6c6cae0e8408aa8960a31b6064820152fd5b600090813560e01c90816306fdde0314610f2257508063095ea7b314610e775780630d392cd914610deb5780631171bda914610cd9578063134dfcd814610b8b57806318160ddd14610b6c57806323b872dd14610b455780632d6f34ec14610ae1578063313ce56714610ac557806332cb6b0c14610a9e578063349f0b9014610a545780633af32abf146102dd5780633f4ba83a146109e957806340c10f19146107b557806342966c681461079757806348709a93146107735780635c0ef3fa146105985780635c975abb1461057457806370a082311461053d578063715018a6146104dc57806379cc6790146104a65780638456cb591461044b5780638da5cb5b1461041e57806395d89b411461031b5780639b19251a146102dd578063a9059cbb146102ac578063dd62ed3e146102545763f2fde38b0361001357919034610250576020366003190112610250576101ce61105d565b6101d66110bc565b6001600160a01b0381811693909290841561023a57505060058054610100600160a81b03198116600893841b610100600160a81b031617909155901c167f8be0079c531659141344cd1fd0a4f28419497f9722a3daafe3b4186f6b6457e08380a380f35b51631e4fbdf760e01b8152908101859052602490fd5b8280fd5b5082346102a857806003193601126102a85761026e61105d565b6001600160a01b0360243581811692908390036102a4579160209491849316825260018552828220908252845220549051908152f35b8480fd5b5080fd5b5082346102a857806003193601126102a8576020906102d66102cc61105d565b6024359033611123565b5160018152f35b5082346102a85760203660031901126102a85760209160ff9082906001600160a01b0361030861105d565b1681526008855220541690519015158152f35b5082346102a857816003193601126102a857805191809380549160019083821c92828516948515610414575b6020958686108114610401578589529081156103dd5750600114610385575b6103818787610377828c03836110eb565b5191829182611014565b0390f35b81529295507f8a35acfbc15ff81a39ae7d344fd709f28e8600b4aa8c65c6b64bfe7fe36bd19b5b8284106103ca57505050826103819461037792820101948680610366565b80548685018801529286019281016103ac565b60ff19168887015250505050151560051b8301019250610377826103818680610366565b634e487b7160e01b845260228352602484fd5b93607f1693610347565b5082346102a857816003193601126102a857600554905160089190911c6001600160a01b03168152602090f35b5082346102a857816003193601126102a85760207f62e78cea01bee320cd4e420270b5ea74000d11b0c9f74754ebdbfc544b05a258916104896110bc565b6104916115c6565b600160ff19600554161760055551338152a180f35b5082346102a8573660031901126104d9576104d66104c261105d565b602435906104d18233836112cb565b61139e565b80f35b80fd5b50346104d957806003193601126104d9576104f56110bc565b60058054610100600160a81b03198116909155819060081c6001600160a01b03167f8be0079c531659141344cd1fd0a4f28419497f9722a3daafe3b4186f6b6457e08280a380f35b5082346102a85760203660031901126102a85760209181906001600160a01b0361056561105d565b16815280845220549051908152f35b5082346102a857816003193601126102a85760209060ff6005541690519015158152f35b50913461025057806003193601126102505781359167ffffffffffffffff918284116102a457366023850112156102a457838201359283116102a457602493848101908536918660051b01011161076f576105f1611078565b6105f96110bc565b841561072057606485116106cb5790938115159190875b81811061061b578880f35b887ff93f9a76c1bf3444d22400a00cb9fe990e6abe9dbb333fda48859cfee864543d6001600160a01b038061067161065f86888e61066c866106648686868661158c565b6115b2565b16151561152a565b61158c565b168352610692868960209560088752209060ff801983541691151516179055565b6106a061065f85878d61158c565b16918751878152a260001981146106b957600101610610565b634e487b7160e01b8952601186528789fd5b825162461bcd60e51b8152602081860152602a818801527f57686974656c697374546f6b656e3a20746f6f206d616e79206163636f756e746044820152690e640d2dc40c4c2e8c6d60b31b6064820152608490fd5b825162461bcd60e51b81526020818601528087018790527f57686974656c697374546f6b656e3a20656d707479206163636f756e747320616044820152637272617960e01b6064820152608490fd5b8580fd5b5082346102a857816003193601126102a85760209060ff6007541690519015158152f35b5090346102a85760203660031901126102a8576104d690353361139e565b5091346102505780600319360112610250576107cf61105d565b90602435916107dc6110bc565b6001600160a01b031692831561099357600254906b033b2e3c9fd0803ce80000006108078584611507565b116109415760ff600754168061093a575b80610932575b61089f575b509160209161085b827f0f6798a560793a54c3bcfe86a93cde1e73087d944c0ea20544137d4121396885956108566115c6565b611507565b60025584865285835280862082815401905584867fddf252ad1be2c89b69c2b068fc378daa952ba7f163c4a11628f55a4df523b3ef858451868152a351908152a280f35b858052600860205260ff83872054168015610922575b61082357608490602084519162461bcd60e51b8352820152603c60248201527f57686974656c697374546f6b656e3a207472616e73666572207265737472696360448201527f74656420746f2077686974656c697374656420616464726573736573000000006064820152fd5b5084865260ff83872054166108b5565b50600161081e565b5085610818565b608490602084519162461bcd60e51b8352820152602660248201527f57686974656c697374546f6b656e3a2065786365656473206d6178696d756d20604482015265737570706c7960d01b6064820152fd5b6020608492519162461bcd60e51b8352820152602b60248201527f57686974656c697374546f6b656e3a2063616e6e6f74206d696e7420746f207a60448201526a65726f206164647265737360a81b6064820152fd5b50919034610250578260031936011261025057610a046110bc565b6005549060ff821615610a46575060ff1916600555513381527f5db9ee0a495bf2e6ff9c91a7834c1ba4fdd244a5e8aa4e537bd38aeae4b073aa90602090a180f35b8251638dfc202b60e01b8152fd5b5082346102a857816003193601126102a857600254916b033b2e3c9fd0803ce8000000928303928311610a8b576020838351908152f35b634e487b7160e01b815260118452602490fd5b5082346102a857816003193601126102a857602090516b033b2e3c9fd0803ce80000008152f35b5082346102a857816003193601126102a8576020905160128152f35b50919034610250576020366003190112610250573590811515809203610250577fda81ecff2340e73c6e85fb9b069a92b937d5a7ba594c3642e0d19a9bf0a0abc191602091610b2e6110bc565b60ff196007541660ff83161760075551908152a180f35b5082346102a8576020906102d6610b5b36611087565b91610b678333836112cb565b611123565b5082346102a857816003193601126102a8576020906002549051908152f35b5091346102505760203660031901126102505781356001600160a01b03811690819003610cd557610bba6110bc565b610bc2611647565b610bcd8115156115e4565b4715610c8857838080809347905af13d15610c83573d67ffffffffffffffff8111610c7057825190610c09601f8201601f1916602001836110eb565b81528460203d92013e5b15610c215782600160065580f35b906020608492519162461bcd60e51b8352820152602360248201527f57686974656c697374546f6b656e3a20455448207265636f76657279206661696044820152621b195960ea1b6064820152fd5b634e487b7160e01b855260418452602485fd5b610c13565b815162461bcd60e51b8152602081850152602160248201527f57686974656c697374546f6b656e3a206e6f2045544820746f207265636f76656044820152603960f91b6064820152608490fd5b8380fd5b50913461025057610ce936611087565b939091610cf46110bc565b610cfc611647565b6001600160a01b0390811692308414610d96579186604492602095941693610d258515156115e4565b8651978895869463a9059cbb60e01b865285015260248401525af1908115610d8d5750610d56575b50600160065580f35b6020813d8211610d85575b81610d6e602093836110eb565b810103126102a85751801515036104d95738610d4d565b3d9150610d61565b513d84823e3d90fd5b845162461bcd60e51b8152602081850152602960248201527f57686974656c697374546f6b656e3a2063616e6e6f74207265636f766572206f604482015268776e20746f6b656e7360b81b6064820152608490fd5b5082346102a857806003193601126102a8577ff93f9a76c1bf3444d22400a00cb9fe990e6abe9dbb333fda48859cfee864543d6020610e2861105d565b610e30611078565b90610e396110bc565b6001600160a01b031693610e4e85151561152a565b84865260088352610e6d828288209060ff801983541691151516179055565b519015158152a280f35b50919034610250578160031936011261025057610e9261105d565b602435903315610f0b576001600160a01b0316918215610ef457508083602095338152600187528181208582528752205582519081527f8c5be1e5ebec7d5bd14f71427d1e84f3dd0314c0f7b2291e5b200ac8c7c3b925843392a35160018152f35b8351634a1406b160e11b8152908101859052602490fd5b835163e602df0560e01b8152808401869052602490fd5b9050838334610cd55783600319360112610cd557600354600181811c918690828116801561100a575b6020958686108214610ff75750848852908115610fd55750600114610f7c575b6103818686610377828b03836110eb565b929550600383527fc2575a0e9e593c00f959f8c92f12db2869c3395a3b0502d05e2516446f71f85b5b828410610fc2575050508261038194610377928201019486610f6b565b8054868501880152928601928101610fa5565b60ff191687860152505050151560051b83010192506103778261038186610f6b565b634e487b7160e01b845260229052602483fd5b93607f1693610f4b565b6020808252825181830181905290939260005b82811061104957505060409293506000838284010152601f8019910116010190565b818101860151848201604001528501611027565b600435906001600160a01b038216820361107357565b600080fd5b60243590811515820361107357565b6060906003190112611073576001600160a01b0390600435828116810361107357916024359081168103611073579060443590565b60055460081c6001600160a01b031633036110d357565b60405163118cdaa760e01b8152336004820152602490fd5b90601f8019910116810190811067ffffffffffffffff82111761110d57604052565b634e487b7160e01b600052604160045260246000fd5b916001600160a01b038084169283156112b257169283156112995760ff6007541680611291575b80611289575b6111ee575b61115d6115c6565b600090838252816020526040822054908382106111bc575091604082827fddf252ad1be2c89b69c2b068fc378daa952ba7f163c4a11628f55a4df523b3ef958760209652828652038282205586815220818154019055604051908152a3565b60405163391434e360e21b81526001600160a01b03919091166004820152602481019190915260448101839052606490fd5b82600052600860205260ff604060002054168015611276575b6111555760405162461bcd60e51b815260206004820152603c60248201527f57686974656c697374546f6b656e3a207472616e73666572207265737472696360448201527f74656420746f2077686974656c697374656420616464726573736573000000006064820152608490fd5b508360005260ff60406000205416611207565b506001611150565b50600161114a565b60405163ec442f0560e01b815260006004820152602490fd5b604051634b637e8f60e11b815260006004820152602490fd5b9160018060a01b03809316916000938385526001602052604093848620918316918287526020528486205492600019841061130a575b50505050505050565b84841061136e5750801561135657811561133e57855260016020528385209085526020520391205538808080808080611301565b8451634a1406b160e11b815260048101879052602490fd5b845163e602df0560e01b815260048101879052602490fd5b8551637dc7a0d960e11b81526001600160a01b039190911660048201526024810184905260448101859052606490fd5b906001600160a01b0382169081156112b25760ff60075416806114ff575b806114f7575b61145c575b6113cf6115c6565b6000928284528360205260408420549082821061142a5750817fddf252ad1be2c89b69c2b068fc378daa952ba7f163c4a11628f55a4df523b3ef926020928587528684520360408620558060025403600255604051908152a3565b60405163391434e360e21b81526001600160a01b03919091166004820152602481019190915260448101829052606490fd5b81600052600860205260ff6040600020541680156114e4575b6113c75760405162461bcd60e51b815260206004820152603c60248201527f57686974656c697374546f6b656e3a207472616e73666572207265737472696360448201527f74656420746f2077686974656c697374656420616464726573736573000000006064820152608490fd5b506000805260ff60406000205416611475565b5060006113c2565b5060016113bc565b9190820180921161151457565b634e487b7160e01b600052601160045260246000fd5b1561153157565b60405162461bcd60e51b815260206004820152602d60248201527f57686974656c697374546f6b656e3a2063616e6e6f742077686974656c69737460448201526c207a65726f206164647265737360981b6064820152608490fd5b919081101561159c5760051b0190565b634e487b7160e01b600052603260045260246000fd5b356001600160a01b03811681036110735790565b60ff600554166115d257565b60405163d93c066560e01b8152600490fd5b156115eb57565b60405162461bcd60e51b815260206004820152602e60248201527f57686974656c697374546f6b656e3a2063616e6e6f74207265636f766572207460448201526d6f207a65726f206164647265737360901b6064820152608490fd5b600260065414611658576002600655565b604051633ee5aeb560e01b8152600490fdfea2646970667358221220ede9cb622105e9d8ad5649c4626f803bdc3dbb6bf215c85b0336a562d4dbfae464736f6c63430008140033",
  "linkReferences": {},
  "deployedLinkReferences": {}
}